{
  "address": "0xc75De0BE2189952ac7B91Bb2c72E89932FEC9ef3",
  "abi": [
    {
      "inputs": [
        {
          "internalType": "string",
          "name": "name",
          "type": "string"
        },
        {
          "internalType": "string",
          "name": "symbol",
          "type": "string"
        },
        {
          "internalType": "uint8",
          "name": "dec",
          "type": "uint8"
        }
      ],
      "stateMutability": "nonpayable",
      "type": "constructor"
    },
    {
      "inputs": [
        {
          "internalType": "address",
          "name": "spender",
          "type": "address"
        },
        {
          "internalType": "uint256",
          "name": "allowance",
          "type": "uint256"
        },
        {
          "internalType": "uint256",
          "name": "needed",
          "type": "uint256"
        }
      ],
      "name": "ERC20InsufficientAllowance",
      "type": "error"
    },
    {
      "inputs": [
        {
          "internalType": "address",
          "name": "sender",
          "type": "address"
        },
        {
          "internalType": "uint256",
          "name": "balance",
          "type": "uint256"
        },
        {
          "internalType": "uint256",
          "name": "needed",
          "type": "uint256"
        }
      ],
      "name": "ERC20InsufficientBalance",
      "type": "error"
    },
    {
      "inputs": [
        {
          "internalType": "address",
          "name": "approver",
          "type": "address"
        }
      ],
      "name": "ERC20InvalidApprover",
      "type": "error"
    },
    {
      "inputs": [
        {
          "internalType": "address",
          "name": "receiver",
          "type": "address"
        }
      ],
      "name": "ERC20InvalidReceiver",
      "type": "error"
    },
    {
      "inputs": [
        {
          "internalType": "address",
          "name": "sender",
          "type": "address"
        }
      ],
      "name": "ERC20InvalidSender",
      "type": "error"
    },
    {
      "inputs": [
        {
          "internalType": "address",
          "name": "spender",
          "type": "address"
        }
      ],
      "name": "ERC20InvalidSpender",
      "type": "error"
    },
    {
      "inputs": [],
      "name": "FHERC20NotOwnerOrSpender",
      "type": "error"
    },
    {
      "inputs": [],
      "name": "InvalidShortString",
      "type": "error"
    },
    {
      "inputs": [],
      "name": "PermissionInvalid_ContractUnauthorized",
      "type": "error"
    },
    {
      "inputs": [],
      "name": "PermissionInvalid_Disabled",
      "type": "error"
    },
    {
      "inputs": [],
      "name": "PermissionInvalid_Expired",
      "type": "error"
    },
    {
      "inputs": [],
      "name": "PermissionInvalid_IssuerSignature",
      "type": "error"
    },
    {
      "inputs": [],
      "name": "PermissionInvalid_RecipientSignature",
      "type": "error"
    },
    {
      "inputs": [
        {
          "internalType": "string",
          "name": "str",
          "type": "string"
        }
      ],
      "name": "StringTooLong",
      "type": "error"
    },
    {
      "anonymous": false,
      "inputs": [
        {
          "indexed": true,
          "internalType": "address",
          "name": "owner",
          "type": "address"
        },
        {
          "indexed": true,
          "internalType": "address",
          "name": "spender",
          "type": "address"
        },
        {
          "indexed": false,
          "internalType": "uint256",
          "name": "value",
          "type": "uint256"
        }
      ],
      "name": "Approval",
      "type": "event"
    },
    {
      "anonymous": false,
      "inputs": [
        {
          "indexed": true,
          "internalType": "address",
          "name": "owner",
          "type": "address"
        },
        {
          "indexed": false,
          "internalType": "uint256",
          "name": "amount",
          "type": "uint256"
        }
      ],
      "name": "Decrypted",
      "type": "event"
    },
    {
      "anonymous": false,
      "inputs": [],
      "name": "EIP712DomainChanged",
      "type": "event"
    },
    {
      "anonymous": false,
      "inputs": [
        {
          "indexed": true,
          "internalType": "address",
          "name": "owner",
          "type": "address"
        },
        {
          "indexed": true,
          "internalType": "address",
          "name": "spender",
          "type": "address"
        }
      ],
      "name": "EncApproved",
      "type": "event"
    },
    {
      "anonymous": false,
      "inputs": [
        {
          "indexed": true,
          "internalType": "address",
          "name": "from",
          "type": "address"
        },
        {
          "indexed": true,
          "internalType": "address",
          "name": "to",
          "type": "address"
        }
      ],
      "name": "EncTransfer",
      "type": "event"
    },
    {
      "anonymous": false,
      "inputs": [
        {
          "indexed": true,
          "internalType": "address",
          "name": "owner",
          "type": "address"
        },
        {
          "indexed": false,
          "internalType": "uint256",
          "name": "amount",
          "type": "uint256"
        }
      ],
      "name": "Encrypted",
      "type": "event"
    },
    {
      "anonymous": false,
      "inputs": [
        {
          "indexed": true,
          "internalType": "address",
          "name": "from",
          "type": "address"
        },
        {
          "indexed": true,
          "internalType": "address",
          "name": "to",
          "type": "address"
        },
        {
          "indexed": false,
          "internalType": "uint256",
          "name": "value",
          "type": "uint256"
        }
      ],
      "name": "Transfer",
      "type": "event"
    },
    {
      "inputs": [
        {
          "internalType": "address",
          "name": "owner",
          "type": "address"
        },
        {
          "internalType": "address",
          "name": "spender",
          "type": "address"
        }
      ],
      "name": "allowance",
      "outputs": [
        {
          "internalType": "uint256",
          "name": "",
          "type": "uint256"
        }
      ],
      "stateMutability": "view",
      "type": "function"
    },
    {
      "inputs": [
        {
          "internalType": "address",
          "name": "spender",
          "type": "address"
        },
        {
          "internalType": "uint256",
          "name": "value",
          "type": "uint256"
        }
      ],
      "name": "approve",
      "outputs": [
        {
          "internalType": "bool",
          "name": "",
          "type": "bool"
        }
      ],
      "stateMutability": "nonpayable",
      "type": "function"
    },
    {
      "inputs": [
        {
          "internalType": "address",
          "name": "account",
          "type": "address"
        }
      ],
      "name": "balanceOf",
      "outputs": [
        {
          "internalType": "uint256",
          "name": "",
          "type": "uint256"
        }
      ],
      "stateMutability": "view",
      "type": "function"
    },
    {
      "inputs": [
        {
          "components": [
            {
              "internalType": "address",
              "name": "issuer",
              "type": "address"
            },
            {
              "internalType": "uint64",
              "name": "expiration",
              "type": "uint64"
            },
            {
              "internalType": "address[]",
              "name": "contracts",
              "type": "address[]"
            },
            {
              "internalType": "string[]",
              "name": "projects",
              "type": "string[]"
            },
            {
              "internalType": "address",
              "name": "recipient",
              "type": "address"
            },
            {
              "internalType": "uint256",
              "name": "validatorId",
              "type": "uint256"
            },
            {
              "internalType": "address",
              "name": "validatorContract",
              "type": "address"
            },
            {
              "internalType": "bytes32",
              "name": "sealingKey",
              "type": "bytes32"
            },
            {
              "internalType": "bytes",
              "name": "issuerSignature",
              "type": "bytes"
            },
            {
              "internalType": "bytes",
              "name": "recipientSignature",
              "type": "bytes"
            }
          ],
          "internalType": "struct PermissionV2",
          "name": "permission",
          "type": "tuple"
        }
      ],
      "name": "checkPermissionSatisfies",
      "outputs": [
        {
          "internalType": "bool",
          "name": "",
          "type": "bool"
        }
      ],
      "stateMutability": "view",
      "type": "function"
    },
    {
      "inputs": [],
      "name": "decimals",
      "outputs": [
        {
          "internalType": "uint8",
          "name": "",
          "type": "uint8"
        }
      ],
      "stateMutability": "view",
      "type": "function"
    },
    {
      "inputs": [
        {
          "internalType": "uint128",
          "name": "amount",
          "type": "uint128"
        }
      ],
      "name": "decrypt",
      "outputs": [
        {
          "internalType": "bool",
          "name": "",
          "type": "bool"
        }
      ],
      "stateMutability": "nonpayable",
      "type": "function"
    },
    {
      "inputs": [],
      "name": "eip712Domain",
      "outputs": [
        {
          "internalType": "bytes1",
          "name": "fields",
          "type": "bytes1"
        },
        {
          "internalType": "string",
          "name": "name",
          "type": "string"
        },
        {
          "internalType": "string",
          "name": "version",
          "type": "string"
        },
        {
          "internalType": "uint256",
          "name": "chainId",
          "type": "uint256"
        },
        {
          "internalType": "address",
          "name": "verifyingContract",
          "type": "address"
        },
        {
          "internalType": "bytes32",
          "name": "salt",
          "type": "bytes32"
        },
        {
          "internalType": "uint256[]",
          "name": "extensions",
          "type": "uint256[]"
        }
      ],
      "stateMutability": "view",
      "type": "function"
    },
    {
      "inputs": [
        {
          "components": [
            {
              "internalType": "address",
              "name": "issuer",
              "type": "address"
            },
            {
              "internalType": "uint64",
              "name": "expiration",
              "type": "uint64"
            },
            {
              "internalType": "address[]",
              "name": "contracts",
              "type": "address[]"
            },
            {
              "internalType": "string[]",
              "name": "projects",
              "type": "string[]"
            },
            {
              "internalType": "address",
              "name": "recipient",
              "type": "address"
            },
            {
              "internalType": "uint256",
              "name": "validatorId",
              "type": "uint256"
            },
            {
              "internalType": "address",
              "name": "validatorContract",
              "type": "address"
            },
            {
              "internalType": "bytes32",
              "name": "sealingKey",
              "type": "bytes32"
            },
            {
              "internalType": "bytes",
              "name": "issuerSignature",
              "type": "bytes"
            },
            {
              "internalType": "bytes",
              "name": "recipientSignature",
              "type": "bytes"
            }
          ],
          "internalType": "struct PermissionV2",
          "name": "permission",
          "type": "tuple"
        },
        {
          "internalType": "address",
          "name": "owner",
          "type": "address"
        },
        {
          "internalType": "address",
          "name": "spender",
          "type": "address"
        }
      ],
      "name": "encAllowance",
      "outputs": [
        {
          "internalType": "uint128",
          "name": "",
          "type": "uint128"
        }
      ],
      "stateMutability": "view",
      "type": "function"
    },
    {
      "inputs": [
        {
          "internalType": "address",
          "name": "spender",
          "type": "address"
        },
        {
          "internalType": "uint128",
          "name": "ieAmount",
          "type": "uint128"
        }
      ],
      "name": "encApprove",
      "outputs": [
        {
          "internalType": "bool",
          "name": "",
          "type": "bool"
        }
      ],
      "stateMutability": "nonpayable",
      "type": "function"
    },
    {
      "inputs": [
        {
          "components": [
            {
              "internalType": "address",
              "name": "issuer",
              "type": "address"
            },
            {
              "internalType": "uint64",
              "name": "expiration",
              "type": "uint64"
            },
            {
              "internalType": "address[]",
              "name": "contracts",
              "type": "address[]"
            },
            {
              "internalType": "string[]",
              "name": "projects",
              "type": "string[]"
            },
            {
              "internalType": "address",
              "name": "recipient",
              "type": "address"
            },
            {
              "internalType": "uint256",
              "name": "validatorId",
              "type": "uint256"
            },
            {
              "internalType": "address",
              "name": "validatorContract",
              "type": "address"
            },
            {
              "internalType": "bytes32",
              "name": "sealingKey",
              "type": "bytes32"
            },
            {
              "internalType": "bytes",
              "name": "issuerSignature",
              "type": "bytes"
            },
            {
              "internalType": "bytes",
              "name": "recipientSignature",
              "type": "bytes"
            }
          ],
          "internalType": "struct PermissionV2",
          "name": "permission",
          "type": "tuple"
        }
      ],
      "name": "encBalanceOf",
      "outputs": [
        {
          "internalType": "uint128",
          "name": "",
          "type": "uint128"
        }
      ],
      "stateMutability": "view",
      "type": "function"
    },
    {
      "inputs": [
        {
          "internalType": "address",
          "name": "to",
          "type": "address"
        },
        {
          "internalType": "uint128",
          "name": "amount",
          "type": "uint128"
        }
      ],
      "name": "encMint",
      "outputs": [],
      "stateMutability": "nonpayable",
      "type": "function"
    },
    {
      "inputs": [
        {
          "components": [
            {
              "internalType": "address",
              "name": "issuer",
              "type": "address"
            },
            {
              "internalType": "uint64",
              "name": "expiration",
              "type": "uint64"
            },
            {
              "internalType": "address[]",
              "name": "contracts",
              "type": "address[]"
            },
            {
              "internalType": "string[]",
              "name": "projects",
              "type": "string[]"
            },
            {
              "internalType": "address",
              "name": "recipient",
              "type": "address"
            },
            {
              "internalType": "uint256",
              "name": "validatorId",
              "type": "uint256"
            },
            {
              "internalType": "address",
              "name": "validatorContract",
              "type": "address"
            },
            {
              "internalType": "bytes32",
              "name": "sealingKey",
              "type": "bytes32"
            },
            {
              "internalType": "bytes",
              "name": "issuerSignature",
              "type": "bytes"
            },
            {
              "internalType": "bytes",
              "name": "recipientSignature",
              "type": "bytes"
            }
          ],
          "internalType": "struct PermissionV2",
          "name": "permission",
          "type": "tuple"
        }
      ],
      "name": "encTotalSupply",
      "outputs": [
        {
          "internalType": "uint128",
          "name": "",
          "type": "uint128"
        }
      ],
      "stateMutability": "view",
      "type": "function"
    },
    {
      "inputs": [
        {
          "internalType": "address",
          "name": "to",
          "type": "address"
        },
        {
          "internalType": "uint128",
          "name": "ieAmount",
          "type": "uint128"
        }
      ],
      "name": "encTransfer",
      "outputs": [
        {
          "internalType": "bool",
          "name": "",
          "type": "bool"
        }
      ],
      "stateMutability": "nonpayable",
      "type": "function"
    },
    {
      "inputs": [
        {
          "internalType": "address",
          "name": "from",
          "type": "address"
        },
        {
          "internalType": "address",
          "name": "to",
          "type": "address"
        },
        {
          "internalType": "uint128",
          "name": "ieAmount",
          "type": "uint128"
        }
      ],
      "name": "encTransferFrom",
      "outputs": [
        {
          "internalType": "bool",
          "name": "",
          "type": "bool"
        }
      ],
      "stateMutability": "nonpayable",
      "type": "function"
    },
    {
      "inputs": [
        {
          "internalType": "uint128",
          "name": "amount",
          "type": "uint128"
        }
      ],
      "name": "encrypt",
      "outputs": [
        {
          "internalType": "bool",
          "name": "",
          "type": "bool"
        }
      ],
      "stateMutability": "nonpayable",
      "type": "function"
    },
    {
      "inputs": [
        {
          "internalType": "address",
          "name": "to",
          "type": "address"
        },
        {
          "internalType": "uint128",
          "name": "amount",
          "type": "uint128"
        }
      ],
      "name": "mint",
      "outputs": [],
      "stateMutability": "nonpayable",
      "type": "function"
    },
    {
      "inputs": [],
      "name": "name",
      "outputs": [
        {
          "internalType": "string",
          "name": "",
          "type": "string"
        }
      ],
      "stateMutability": "view",
      "type": "function"
    },
    {
      "inputs": [],
      "name": "project",
      "outputs": [
        {
          "internalType": "string",
          "name": "",
          "type": "string"
        }
      ],
      "stateMutability": "view",
      "type": "function"
    },
    {
      "inputs": [
        {
          "components": [
            {
              "internalType": "address",
              "name": "issuer",
              "type": "address"
            },
            {
              "internalType": "uint64",
              "name": "expiration",
              "type": "uint64"
            },
            {
              "internalType": "address[]",
              "name": "contracts",
              "type": "address[]"
            },
            {
              "internalType": "string[]",
              "name": "projects",
              "type": "string[]"
            },
            {
              "internalType": "address",
              "name": "recipient",
              "type": "address"
            },
            {
              "internalType": "uint256",
              "name": "validatorId",
              "type": "uint256"
            },
            {
              "internalType": "address",
              "name": "validatorContract",
              "type": "address"
            },
            {
              "internalType": "bytes32",
              "name": "sealingKey",
              "type": "bytes32"
            },
            {
              "internalType": "bytes",
              "name": "issuerSignature",
              "type": "bytes"
            },
            {
              "internalType": "bytes",
              "name": "recipientSignature",
              "type": "bytes"
            }
          ],
          "internalType": "struct PermissionV2",
          "name": "permission",
          "type": "tuple"
        },
        {
          "internalType": "address",
          "name": "owner",
          "type": "address"
        },
        {
          "internalType": "address",
          "name": "spender",
          "type": "address"
        }
      ],
      "name": "sealedAllowance",
      "outputs": [
        {
          "components": [
            {
              "internalType": "string",
              "name": "data",
              "type": "string"
            },
            {
              "internalType": "uint8",
              "name": "utype",
              "type": "uint8"
            }
          ],
          "internalType": "struct SealedUint",
          "name": "",
          "type": "tuple"
        }
      ],
      "stateMutability": "view",
      "type": "function"
    },
    {
      "inputs": [
        {
          "components": [
            {
              "internalType": "address",
              "name": "issuer",
              "type": "address"
            },
            {
              "internalType": "uint64",
              "name": "expiration",
              "type": "uint64"
            },
            {
              "internalType": "address[]",
              "name": "contracts",
              "type": "address[]"
            },
            {
              "internalType": "string[]",
              "name": "projects",
              "type": "string[]"
            },
            {
              "internalType": "address",
              "name": "recipient",
              "type": "address"
            },
            {
              "internalType": "uint256",
              "name": "validatorId",
              "type": "uint256"
            },
            {
              "internalType": "address",
              "name": "validatorContract",
              "type": "address"
            },
            {
              "internalType": "bytes32",
              "name": "sealingKey",
              "type": "bytes32"
            },
            {
              "internalType": "bytes",
              "name": "issuerSignature",
              "type": "bytes"
            },
            {
              "internalType": "bytes",
              "name": "recipientSignature",
              "type": "bytes"
            }
          ],
          "internalType": "struct PermissionV2",
          "name": "permission",
          "type": "tuple"
        }
      ],
      "name": "sealedBalanceOf",
      "outputs": [
        {
          "components": [
            {
              "internalType": "string",
              "name": "data",
              "type": "string"
            },
            {
              "internalType": "uint8",
              "name": "utype",
              "type": "uint8"
            }
          ],
          "internalType": "struct SealedUint",
          "name": "",
          "type": "tuple"
        }
      ],
      "stateMutability": "view",
      "type": "function"
    },
    {
      "inputs": [
        {
          "components": [
            {
              "internalType": "address",
              "name": "issuer",
              "type": "address"
            },
            {
              "internalType": "uint64",
              "name": "expiration",
              "type": "uint64"
            },
            {
              "internalType": "address[]",
              "name": "contracts",
              "type": "address[]"
            },
            {
              "internalType": "string[]",
              "name": "projects",
              "type": "string[]"
            },
            {
              "internalType": "address",
              "name": "recipient",
              "type": "address"
            },
            {
              "internalType": "uint256",
              "name": "validatorId",
              "type": "uint256"
            },
            {
              "internalType": "address",
              "name": "validatorContract",
              "type": "address"
            },
            {
              "internalType": "bytes32",
              "name": "sealingKey",
              "type": "bytes32"
            },
            {
              "internalType": "bytes",
              "name": "issuerSignature",
              "type": "bytes"
            },
            {
              "internalType": "bytes",
              "name": "recipientSignature",
              "type": "bytes"
            }
          ],
          "internalType": "struct PermissionV2",
          "name": "permission",
          "type": "tuple"
        }
      ],
      "name": "sealedTotalSupply",
      "outputs": [
        {
          "components": [
            {
              "internalType": "string",
              "name": "data",
              "type": "string"
            },
            {
              "internalType": "uint8",
              "name": "utype",
              "type": "uint8"
            }
          ],
          "internalType": "struct SealedUint",
          "name": "",
          "type": "tuple"
        }
      ],
      "stateMutability": "view",
      "type": "function"
    },
    {
      "inputs": [],
      "name": "symbol",
      "outputs": [
        {
          "internalType": "string",
          "name": "",
          "type": "string"
        }
      ],
      "stateMutability": "view",
      "type": "function"
    },
    {
      "inputs": [],
      "name": "totalSupply",
      "outputs": [
        {
          "internalType": "uint256",
          "name": "",
          "type": "uint256"
        }
      ],
      "stateMutability": "view",
      "type": "function"
    },
    {
      "inputs": [
        {
          "internalType": "address",
          "name": "to",
          "type": "address"
        },
        {
          "internalType": "uint256",
          "name": "value",
          "type": "uint256"
        }
      ],
      "name": "transfer",
      "outputs": [
        {
          "internalType": "bool",
          "name": "",
          "type": "bool"
        }
      ],
      "stateMutability": "nonpayable",
      "type": "function"
    },
    {
      "inputs": [
        {
          "internalType": "address",
          "name": "from",
          "type": "address"
        },
        {
          "internalType": "address",
          "name": "to",
          "type": "address"
        },
        {
          "internalType": "uint256",
          "name": "value",
          "type": "uint256"
        }
      ],
      "name": "transferFrom",
      "outputs": [
        {
          "internalType": "bool",
          "name": "",
          "type": "bool"
        }
      ],
      "stateMutability": "nonpayable",
      "type": "function"
    },
    {
      "inputs": [],
      "name": "version",
      "outputs": [
        {
          "internalType": "string",
          "name": "",
          "type": "string"
        }
      ],
      "stateMutability": "view",
      "type": "function"
    }
  ],
  "transactionHash": "0xf6a4d5dfdb27bb9e8c37a4a44cbbefeb1ea33b083e845820ba0cfb8f4f8d6eec",
  "args": [
    "wBTC FHERC20 Token",
    "wBTC",
    8
  ],
  "numDeployments": 1,
  "solcInputHash": "8f6437e06488a6d48e6b25d27af60898",
  "bytecode": "0x610180604052600661014090815265076322e302e360d41b610160526007906200002a90826200037b565b50600b80546001600160801b03191690553480156200004857600080fd5b5060405162003604380380620036048339810160408190526200006b91620004fe565b604051806040016040528060078152602001660464845524332360cc1b81525060076040516020016200009f919062000583565b60405160208183030381529060405260078054620000bd90620002ea565b80601f0160208091040260200160405190810160405280929190818152602001828054620000eb90620002ea565b80156200013c5780601f1062000110576101008083540402835291602001916200013c565b820191906000526020600020905b8154815290600101906020018083116200011e57829003601f168201915b5050505050858581600390816200015491906200037b565b5060046200016382826200037b565b5062000175915083905060056200024f565b61010052620001868160066200024f565b61012052815160208084019190912060c05281519082012060e0524660a0526200021260c0805160e051604080517f8b73c3c69bb8fe3d512ecc4cf759cc79239f7b179b0ffacaa9a75d522b39400f6020820152908101929092526060820152466080820152600060a08201819052910160405160208183030381529060405280519060200120905090565b60805250600890506200022682826200037b565b5050600b805460ff909216600160801b0260ff60801b1990921691909117905550620006829050565b60006020835110156200026f57620002678362000288565b905062000282565b816200027c84826200037b565b5060ff90505b92915050565b600080829050601f81511115620002bf578260405163305a27a960e01b8152600401620002b6919062000628565b60405180910390fd5b8051620002cc826200065d565b179392505050565b634e487b7160e01b600052604160045260246000fd5b600181811c90821680620002ff57607f821691505b6020821081036200032057634e487b7160e01b600052602260045260246000fd5b50919050565b601f82111562000376576000816000526020600020601f850160051c81016020861015620003515750805b601f850160051c820191505b8181101562000372578281556001016200035d565b5050505b505050565b81516001600160401b03811115620003975762000397620002d4565b620003af81620003a88454620002ea565b8462000326565b602080601f831160018114620003e75760008415620003ce5750858301515b600019600386901b1c1916600185901b17855562000372565b600085815260208120601f198616915b828110156200041857888601518255948401946001909101908401620003f7565b5085821015620004375787850151600019600388901b60f8161c191681555b5050505050600190811b01905550565b60005b83811015620004645781810151838201526020016200044a565b50506000910152565b600082601f8301126200047f57600080fd5b81516001600160401b03808211156200049c576200049c620002d4565b604051601f8301601f19908116603f01168101908282118183101715620004c757620004c7620002d4565b81604052838152866020858801011115620004e157600080fd5b620004f484602083016020890162000447565b9695505050505050565b6000806000606084860312156200051457600080fd5b83516001600160401b03808211156200052c57600080fd5b6200053a878388016200046d565b945060208601519150808211156200055157600080fd5b5062000560868287016200046d565b925050604084015160ff811681146200057857600080fd5b809150509250925092565b710233432b734bc102832b936b4b9b9b4b7b7160751b81526000601260008454620005ae81620002ea565b60018281168015620005c95760018114620005e5576200061b565b60ff19841660128901526012831515840289010194506200061b565b8860005260208060002060005b858110156200060f5781548b82018a0152908401908201620005f2565b50505060128389010194505b5092979650505050505050565b60208152600082518060208401526200064981604085016020870162000447565b601f01601f19169190910160400192915050565b80516020808301519190811015620003205760001960209190910360031b1b16919050565b60805160a05160c05160e0516101005161012051612f32620006d26000396000611cb301526000611c81015260006120570152600061202f01526000611fb601526000611fde0152612f326000f3fe608060405234801561001057600080fd5b506004361061018e5760003560e01c806374948b54116100de578063be29184f11610097578063dd62ed3e11610071578063dd62ed3e1461038a578063e26a1d57146103c3578063f60ca60d146103d6578063f8fd566a146103de57600080fd5b8063be29184f1461034f578063c029956314610364578063d12dd9c41461037757600080fd5b806374948b54146102e057806384b0196e146102f3578063915a920f1461030e57806395d89b4114610321578063a9059cbb14610329578063ae6793371461033c57600080fd5b806323b872dd1161014b57806352a2c69e1161012557806352a2c69e1461027c578063530a67651461028f57806354fd4d50146102af57806370a08231146102b757600080fd5b806323b872dd1461023757806329c772611461024a578063313ce5671461025d57600080fd5b806306fdde0314610193578063095ea7b3146101b15780630f2ef4b2146101d457806316cabc04146101ff57806318160ddd146102125780631c18282314610224575b600080fd5b61019b6103f1565b6040516101a891906126e1565b60405180910390f35b6101c46101bf366004612710565b610483565b60405190151581526020016101a8565b6101e76101e236600461274d565b61049d565b6040516001600160801b0390911681526020016101a8565b6101c461020d3660046127a0565b6106fe565b6002545b6040519081526020016101a8565b6101c46102323660046127bb565b610763565b6101c46102453660046127ee565b61077a565b6101c461025836600461282a565b6107a0565b600b54600160801b900460ff1660405160ff90911681526020016101a8565b6101c461028a3660046127a0565b6107c7565b6102a261029d36600461286d565b610833565b6040516101a891906128c1565b61019b610aa5565b6102166102c53660046128f6565b6001600160a01b031660009081526020819052604090205490565b6101e76102ee36600461274d565b610b33565b6102fb610d11565b6040516101a89796959493929190612911565b6101c461031c366004612ce9565b610d57565b61019b610df8565b6101c4610337366004612710565b610e07565b6101e761034a36600461286d565b610e15565b61036261035d3660046127bb565b611054565b005b6101c46103723660046127bb565b61106b565b6102a261038536600461274d565b611081565b610216610398366004612d1d565b6001600160a01b03918216600090815260016020908152604080832093909416825291909152205490565b6103626103d13660046127bb565b61128f565b61019b611299565b6102a26103ec36600461274d565b6112a6565b60606003805461040090612d47565b80601f016020809104026020016040519081016040528092919081815260200182805461042c90612d47565b80156104795780601f1061044e57610100808354040283529160200191610479565b820191906000526020600020905b81548152906001019060200180831161045c57829003601f168201915b5050505050905090565b60003361049181858561147d565b60019150505b92915050565b60006104a882612d7b565b61054730600880546104b990612d47565b80601f01602080910402602001604051908101604052809291908181526020018280546104e590612d47565b80156105325780601f1061050757610100808354040283529160200191610532565b820191906000526020600020905b81548152906001019060200180831161051557829003601f168201915b50505050508361148f9092919063ffffffff16565b6105645760405163270d638160e21b815260040160405180910390fd5b4281602001516001600160401b031610156105925760405163ed0764a160e01b815260040160405180910390fd5b80516105b4906105a96105a484611586565b6115ad565b8361010001516115da565b6105d157604051634c40eccb60e01b815260040160405180910390fd5b60808101516001600160a01b031615801590610609575061060781608001516105fc6105a48461163c565b8361012001516115da565b155b1561062757604051638e143bf760e01b815260040160405180910390fd5b60a081015115801590610646575060c08101516001600160a01b031615155b80156106cb575060c0810151815160a08301516040516316c6723d60e31b81526001600160a01b039283166004820152602481019190915291169063b63391e890604401602060405180830381865afa1580156106a7573d6000803e3d6000fd5b505050506040513d601f19601f820116820180604052508101906106cb9190612d87565b156106e9576040516365e9d4b360e11b815260040160405180910390fd5b600b546001600160801b031691505b50919050565b600061071333836001600160801b03166116b1565b61071d33836116ec565b6040516001600160801b038316815233907ffa6d8a0bf11242e03fec0e4a4bcec02f5e8cecf625bdb16b8f49ad4283b869719060200160405180910390a2506001919050565b60006107703384846117de565b5060019392505050565b60003361078885828561194c565b6107938585856119ca565b60019150505b9392505050565b6000806107ae853385611a29565b90506107bb8585836117de565b50600195945050505050565b6000806107d43384611a8e565b90508092506107ec33846001600160801b0316611bb2565b6040516001600160801b038416815233907f906c68e8ad89a2f585c308dc5e220e588c937ddcef4dc81ef8efb52f72363f379060200160405180910390a250600192915050565b60408051808201909152606081526000602082015261085184612d7b565b61086230600880546104b990612d47565b61087f5760405163270d638160e21b815260040160405180910390fd5b4281602001516001600160401b031610156108ad5760405163ed0764a160e01b815260040160405180910390fd5b80516108bf906105a96105a484611586565b6108dc57604051634c40eccb60e01b815260040160405180910390fd5b60808101516001600160a01b031615801590610909575061090781608001516105fc6105a48461163c565b155b1561092757604051638e143bf760e01b815260040160405180910390fd5b60a081015115801590610946575060c08101516001600160a01b031615155b80156109cb575060c0810151815160a08301516040516316c6723d60e31b81526001600160a01b039283166004820152602481019190915291169063b63391e890604401602060405180830381865afa1580156109a7573d6000803e3d6000fd5b505050506040513d601f19601f820116820180604052508101906109cb9190612d87565b156109e9576040516365e9d4b360e11b815260040160405180910390fd5b60006109f860208701876128f6565b9050846001600160a01b0316816001600160a01b031614158015610a2e5750836001600160a01b0316816001600160a01b031614155b15610a4c57604051633d8be93160e11b815260040160405180910390fd5b6040805180820182526001600160a01b038088166000908152600a602090815284822092891682529190915291909120548190610a91906001600160801b0316611be8565b815260046020909101529695505050505050565b60078054610ab290612d47565b80601f0160208091040260200160405190810160405280929190818152602001828054610ade90612d47565b8015610b2b5780601f10610b0057610100808354040283529160200191610b2b565b820191906000526020600020905b815481529060010190602001808311610b0e57829003601f168201915b505050505081565b6000610b3e82612d7b565b610b4f30600880546104b990612d47565b610b6c5760405163270d638160e21b815260040160405180910390fd5b4281602001516001600160401b03161015610b9a5760405163ed0764a160e01b815260040160405180910390fd5b8051610bac906105a96105a484611586565b610bc957604051634c40eccb60e01b815260040160405180910390fd5b60808101516001600160a01b031615801590610bf65750610bf481608001516105fc6105a48461163c565b155b15610c1457604051638e143bf760e01b815260040160405180910390fd5b60a081015115801590610c33575060c08101516001600160a01b031615155b8015610cb8575060c0810151815160a08301516040516316c6723d60e31b81526001600160a01b039283166004820152602481019190915291169063b63391e890604401602060405180830381865afa158015610c94573d6000803e3d6000fd5b505050506040513d601f19601f82011682018060405250810190610cb89190612d87565b15610cd6576040516365e9d4b360e11b815260040160405180910390fd5b60096000610ce760208601866128f6565b6001600160a01b031681526020810191909152604001600020546001600160801b03169392505050565b600060608060008060006060610d25611c7a565b610d2d611cac565b60408051600080825260208201909252600f60f81b9b939a50919850469750955085945092509050565b60006104973060088054610d6a90612d47565b80601f0160208091040260200160405190810160405280929190818152602001828054610d9690612d47565b8015610de35780601f10610db857610100808354040283529160200191610de3565b820191906000526020600020905b815481529060010190602001808311610dc657829003601f168201915b50505050508461148f9092919063ffffffff16565b60606004805461040090612d47565b6000336104918185856119ca565b6000610e2084612d7b565b610e3130600880546104b990612d47565b610e4e5760405163270d638160e21b815260040160405180910390fd5b4281602001516001600160401b03161015610e7c5760405163ed0764a160e01b815260040160405180910390fd5b8051610e8e906105a96105a484611586565b610eab57604051634c40eccb60e01b815260040160405180910390fd5b60808101516001600160a01b031615801590610ed85750610ed681608001516105fc6105a48461163c565b155b15610ef657604051638e143bf760e01b815260040160405180910390fd5b60a081015115801590610f15575060c08101516001600160a01b031615155b8015610f9a575060c0810151815160a08301516040516316c6723d60e31b81526001600160a01b039283166004820152602481019190915291169063b63391e890604401602060405180830381865afa158015610f76573d6000803e3d6000fd5b505050506040513d601f19601f82011682018060405250810190610f9a9190612d87565b15610fb8576040516365e9d4b360e11b815260040160405180910390fd5b6000610fc760208701876128f6565b9050846001600160a01b0316816001600160a01b031614158015610ffd5750836001600160a01b0316816001600160a01b031614155b1561101b57604051633d8be93160e11b815260040160405180910390fd5b5050506001600160a01b039182166000908152600a602090815260408083209390941682529190915220546001600160801b0316919050565b61106782826001600160801b0316611bb2565b5050565b6000611078338484611cd9565b50600192915050565b60408051808201909152606081526000602082015261109f82612d7b565b6110b030600880546104b990612d47565b6110cd5760405163270d638160e21b815260040160405180910390fd5b4281602001516001600160401b031610156110fb5760405163ed0764a160e01b815260040160405180910390fd5b805161110d906105a96105a484611586565b61112a57604051634c40eccb60e01b815260040160405180910390fd5b60808101516001600160a01b031615801590611157575061115581608001516105fc6105a48461163c565b155b1561117557604051638e143bf760e01b815260040160405180910390fd5b60a081015115801590611194575060c08101516001600160a01b031615155b8015611219575060c0810151815160a08301516040516316c6723d60e31b81526001600160a01b039283166004820152602481019190915291169063b63391e890604401602060405180830381865afa1580156111f5573d6000803e3d6000fd5b505050506040513d601f19601f820116820180604052508101906112199190612d87565b15611237576040516365e9d4b360e11b815260040160405180910390fd5b604080518082019091528061127e6009600061125660208901896128f6565b6001600160a01b031681526020810191909152604001600020546001600160801b0316611be8565b815260046020909101529392505050565b61106782826116ec565b60088054610ab290612d47565b6040805180820190915260608152600060208201526112c482612d7b565b6112d530600880546104b990612d47565b6112f25760405163270d638160e21b815260040160405180910390fd5b4281602001516001600160401b031610156113205760405163ed0764a160e01b815260040160405180910390fd5b8051611332906105a96105a484611586565b61134f57604051634c40eccb60e01b815260040160405180910390fd5b60808101516001600160a01b03161580159061137c575061137a81608001516105fc6105a48461163c565b155b1561139a57604051638e143bf760e01b815260040160405180910390fd5b60a0810151158015906113b9575060c08101516001600160a01b031615155b801561143e575060c0810151815160a08301516040516316c6723d60e31b81526001600160a01b039283166004820152602481019190915291169063b63391e890604401602060405180830381865afa15801561141a573d6000803e3d6000fd5b505050506040513d601f19601f8201168201806040525081019061143e9190612d87565b1561145c576040516365e9d4b360e11b815260040160405180910390fd5b60408051808201909152600b54819061127e906001600160801b0316611be8565b61148a8383836001611d75565b505050565b6000805b84606001515181101561152257846060015181815181106114b6576114b6612da9565b60200260200101516040516020016114ce9190612dbf565b60405160208183030381529060405280519060200120836040516020016114f59190612dbf565b604051602081830303815290604052805190602001200361151a576001915050610799565b600101611493565b5060005b84604001515181101561157b578460400151818151811061154957611549612da9565b60200260200101516001600160a01b0316846001600160a01b031603611573576001915050610799565b600101611526565b506000949350505050565b60808101516000906001600160a01b03166115a45761049782611e4a565b61049782611f05565b60006104976115ba611fb2565b8360405161190160f01b8152600281019290925260228201526042902090565b60008060006115e985856120a9565b509092509050600081600381111561160357611603612ddb565b1480156116215750856001600160a01b0316826001600160a01b0316145b8061163257506116328686866120f6565b9695505050505050565b60007f82af07a6c9eb6bb31a0c86f7f5cad0039589750ad5b4b925ed5741f7ad4e8d4b8260e0015183610100015180519060200120604051602001611694939291909283526020830191909152604082015260600190565b604051602081830303815290604052805190602001209050919050565b6001600160a01b0382166116e057604051634b637e8f60e11b8152600060048201526024015b60405180910390fd5b611067826000836121d1565b6001600160a01b0382166117165760405163ec442f0560e01b8152600060048201526024016116d7565b6001600160a01b0382166000908152600960205260409020546117439082906001600160801b0316612e07565b6001600160a01b038316600090815260096020526040902080546001600160801b0319166001600160801b03928316179055600b5461178491839116612e07565b600b80546001600160801b0319166001600160801b03929092169190911790556040516001600160a01b038316906000907ffa239b94d36aeadf391c0ce5ff2dd5a0950467d1e5818a4b918597297c64fb48908290a35050565b60006001600160a01b03841661180a57604051634b637e8f60e11b8152600060048201526024016116d7565b6001600160a01b0383166118345760405163ec442f0560e01b8152600060048201526024016116d7565b6001600160a01b0384166000908152600960205260409020546001600160801b03908116908316111561186857600061186a565b815b91506001600160a01b0383166000908152600960205260409020546118999083906001600160801b0316612e07565b6001600160a01b0384811660009081526009602052604080822080546001600160801b0319166001600160801b03958616179055918716815220546118e091849116612e2e565b6001600160a01b0385811660008181526009602052604080822080546001600160801b0319166001600160801b03969096169590951790945592519186169290917ffa239b94d36aeadf391c0ce5ff2dd5a0950467d1e5818a4b918597297c64fb489190a35092915050565b6001600160a01b0383811660009081526001602090815260408083209386168352929052205460001981146119c457818110156119b557604051637dc7a0d960e11b81526001600160a01b038416600482015260248101829052604481018390526064016116d7565b6119c484848484036000611d75565b50505050565b6001600160a01b0383166119f457604051634b637e8f60e11b8152600060048201526024016116d7565b6001600160a01b038216611a1e5760405163ec442f0560e01b8152600060048201526024016116d7565b61148a8383836121d1565b6001600160a01b038084166000908152600a602090815260408083209386168352929052908120546001600160801b0390811690829084168210611a6d5783611a6f565b815b9050611a858686611a808486612e2e565b611cd9565b95945050505050565b60006001600160a01b038316611aba57604051634b637e8f60e11b8152600060048201526024016116d7565b336000908152600960205260409020546001600160801b0380841691161015611ae4576000611ae6565b815b91506001600160a01b038316600090815260096020526040902054611b159083906001600160801b0316612e2e565b6001600160a01b038416600090815260096020526040902080546001600160801b0319166001600160801b03928316179055600b54611b5691849116612e2e565b600b80546001600160801b0319166001600160801b03929092169190911790556040516000906001600160a01b038516907ffa239b94d36aeadf391c0ce5ff2dd5a0950467d1e5818a4b918597297c64fb48908390a350919050565b6001600160a01b038216611bdc5760405163ec442f0560e01b8152600060048201526024016116d7565b611067600083836121d1565b60606000611bf5836122fb565b60010190506000816001600160401b03811115611c1457611c146129aa565b6040519080825280601f01601f191660200182016040528015611c3e576020820181803683370190505b5090508181016020015b600019016f181899199a1a9b1b9c1cb0b131b232b360811b600a86061a8153600a8504945084611c4857509392505050565b6060611ca77f000000000000000000000000000000000000000000000000000000000000000060056123d3565b905090565b6060611ca77f000000000000000000000000000000000000000000000000000000000000000060066123d3565b6001600160a01b038316611d035760405163e602df0560e01b8152600060048201526024016116d7565b6001600160a01b038216611d2d57604051634a1406b160e11b8152600060048201526024016116d7565b6001600160a01b039283166000908152600a602090815260408083209490951682529290925291902080546001600160801b0319166001600160801b03909216919091179055565b6001600160a01b038416611d9f5760405163e602df0560e01b8152600060048201526024016116d7565b6001600160a01b038316611dc957604051634a1406b160e11b8152600060048201526024016116d7565b6001600160a01b03808516600090815260016020908152604080832093871683529290522082905580156119c457826001600160a01b0316846001600160a01b03167f8c5be1e5ebec7d5bd14f71427d1e84f3dd0314c0f7b2291e5b200ac8c7c3b92584604051611e3c91815260200190565b60405180910390a350505050565b60007f797ab193efe84b44473de073318ef41961d3fa5ef73bc7216350218112334bdb82600001518360200151611e84856040015161247e565b611e918660600151612491565b60808088015160a0808a015160c0808c015160e0808e015160408051602081019e909e526001600160a01b039c8d16908e01526001600160401b03909a1660608d0152958b019790975291890194909452908616908701528501529190911661010083015261012082015261014001611694565b60007f0b0ce3383b8517b8e5237c72784f418ec77893496254197a7ad99c62732efd4882600001518360200151611f3f856040015161247e565b611f4c8660600151612491565b60808088015160a0808a015160c0808c015160408051602081019c909c526001600160a01b039a8b16908c01526001600160401b0390981660608b0152938901959095528701929092529084169085015260e08401521661010082015261012001611694565b60007f0000000000000000000000000000000000000000000000000000000000000000460361200057507f000000000000000000000000000000000000000000000000000000000000000090565b611ca7604080517f8b73c3c69bb8fe3d512ecc4cf759cc79239f7b179b0ffacaa9a75d522b39400f60208201527f0000000000000000000000000000000000000000000000000000000000000000918101919091527f00000000000000000000000000000000000000000000000000000000000000006060820152466080820152600060a082018190529060c00160405160208183030381529060405280519060200120905090565b600080600083516041036120e35760208401516040850151606086015160001a6120d58882858561255b565b9550955095505050506120ef565b50508151600091506002905b9250925092565b6000806000856001600160a01b03168585604051602401612118929190612e4e565b60408051601f198184030181529181526020820180516001600160e01b0316630b135d3f60e11b1790525161214d9190612dbf565b600060405180830381855afa9150503d8060008114612188576040519150601f19603f3d011682016040523d82523d6000602084013e61218d565b606091505b50915091508180156121a157506020815110155b801561163257508051630b135d3f60e11b906121c69083016020908101908401612e67565b149695505050505050565b6001600160a01b0383166121fc5780600260008282546121f19190612e80565b9091555061226e9050565b6001600160a01b0383166000908152602081905260409020548181101561224f5760405163391434e360e21b81526001600160a01b038516600482015260248101829052604481018390526064016116d7565b6001600160a01b03841660009081526020819052604090209082900390555b6001600160a01b03821661228a576002805482900390556122a9565b6001600160a01b03821660009081526020819052604090208054820190555b816001600160a01b0316836001600160a01b03167fddf252ad1be2c89b69c2b068fc378daa952ba7f163c4a11628f55a4df523b3ef836040516122ee91815260200190565b60405180910390a3505050565b60008072184f03e93ff9f4daa797ed6e38ed64bf6a1f0160401b831061233a5772184f03e93ff9f4daa797ed6e38ed64bf6a1f0160401b830492506040015b6d04ee2d6d415b85acef81000000008310612366576d04ee2d6d415b85acef8100000000830492506020015b662386f26fc10000831061238457662386f26fc10000830492506010015b6305f5e100831061239c576305f5e100830492506008015b61271083106123b057612710830492506004015b606483106123c2576064830492506002015b600a83106104975760010192915050565b606060ff83146123ed576123e68361262a565b9050610497565b8180546123f990612d47565b80601f016020809104026020016040519081016040528092919081815260200182805461242590612d47565b80156124725780601f1061244757610100808354040283529160200191612472565b820191906000526020600020905b81548152906001019060200180831161245557829003601f168201915b50505050509050610497565b6000816040516020016116949190612e93565b60008082516001600160401b038111156124ad576124ad6129aa565b6040519080825280602002602001820160405280156124d6578160200160208202803683370190505b50905060005b835181101561252b578381815181106124f7576124f7612da9565b60200260200101518051906020012082828151811061251857612518612da9565b60209081029190910101526001016124dc565b508060405160200161253d9190612ed2565b60405160208183030381529060405280519060200120915050919050565b600080807f7fffffffffffffffffffffffffffffff5d576e7357a4501ddfe92f46681b20a08411156125965750600091506003905082612620565b604080516000808252602082018084528a905260ff891692820192909252606081018790526080810186905260019060a0016020604051602081039080840390855afa1580156125ea573d6000803e3d6000fd5b5050604051601f1901519150506001600160a01b03811661261657506000925060019150829050612620565b9250600091508190505b9450945094915050565b6060600061263783612669565b604080516020808252818301909252919250600091906020820181803683375050509182525060208101929092525090565b600060ff8216601f81111561049757604051632cd44ac360e21b815260040160405180910390fd5b60005b838110156126ac578181015183820152602001612694565b50506000910152565b600081518084526126cd816020860160208601612691565b601f01601f19169290920160200192915050565b60208152600061079960208301846126b5565b80356001600160a01b038116811461270b57600080fd5b919050565b6000806040838503121561272357600080fd5b61272c836126f4565b946020939093013593505050565b600061014082840312156106f857600080fd5b60006020828403121561275f57600080fd5b81356001600160401b0381111561277557600080fd5b6127818482850161273a565b949350505050565b80356001600160801b038116811461270b57600080fd5b6000602082840312156127b257600080fd5b61079982612789565b600080604083850312156127ce57600080fd5b6127d7836126f4565b91506127e560208401612789565b90509250929050565b60008060006060848603121561280357600080fd5b61280c846126f4565b925061281a602085016126f4565b9150604084013590509250925092565b60008060006060848603121561283f57600080fd5b612848846126f4565b9250612856602085016126f4565b915061286460408501612789565b90509250925092565b60008060006060848603121561288257600080fd5b83356001600160401b0381111561289857600080fd5b6128a48682870161273a565b9350506128b3602085016126f4565b9150612864604085016126f4565b6020815260008251604060208401526128dd60608401826126b5565b905060ff60208501511660408401528091505092915050565b60006020828403121561290857600080fd5b610799826126f4565b60ff60f81b881681526000602060e0602084015261293260e084018a6126b5565b8381036040850152612944818a6126b5565b606085018990526001600160a01b038816608086015260a0850187905284810360c08601528551808252602080880193509091019060005b818110156129985783518352928401929184019160010161297c565b50909c9b505050505050505050505050565b634e487b7160e01b600052604160045260246000fd5b60405161014081016001600160401b03811182821017156129e3576129e36129aa565b60405290565b604051601f8201601f191681016001600160401b0381118282101715612a1157612a116129aa565b604052919050565b80356001600160401b038116811461270b57600080fd5b60006001600160401b03821115612a4957612a496129aa565b5060051b60200190565b600082601f830112612a6457600080fd5b81356020612a79612a7483612a30565b6129e9565b8083825260208201915060208460051b870101935086841115612a9b57600080fd5b602086015b84811015612abe57612ab1816126f4565b8352918301918301612aa0565b509695505050505050565b60006001600160401b03831115612ae257612ae26129aa565b612af5601f8401601f19166020016129e9565b9050828152838383011115612b0957600080fd5b828260208301376000602084830101529392505050565b600082601f830112612b3157600080fd5b81356020612b41612a7483612a30565b82815260059290921b84018101918181019086841115612b6057600080fd5b8286015b84811015612abe5780356001600160401b03811115612b835760008081fd5b8701603f81018913612b955760008081fd5b612ba6898683013560408401612ac9565b845250918301918301612b64565b600082601f830112612bc557600080fd5b61079983833560208501612ac9565b60006101408284031215612be757600080fd5b612bef6129c0565b9050612bfa826126f4565b8152612c0860208301612a19565b602082015260408201356001600160401b0380821115612c2757600080fd5b612c3385838601612a53565b60408401526060840135915080821115612c4c57600080fd5b612c5885838601612b20565b6060840152612c69608085016126f4565b608084015260a084013560a0840152612c8460c085016126f4565b60c084015260e084013560e084015261010091508184013581811115612ca957600080fd5b612cb586828701612bb4565b838501525061012091508184013581811115612cd057600080fd5b612cdc86828701612bb4565b8385015250505092915050565b600060208284031215612cfb57600080fd5b81356001600160401b03811115612d1157600080fd5b61278184828501612bd4565b60008060408385031215612d3057600080fd5b612d39836126f4565b91506127e5602084016126f4565b600181811c90821680612d5b57607f821691505b6020821081036106f857634e487b7160e01b600052602260045260246000fd5b60006104973683612bd4565b600060208284031215612d9957600080fd5b8151801515811461079957600080fd5b634e487b7160e01b600052603260045260246000fd5b60008251612dd1818460208701612691565b9190910192915050565b634e487b7160e01b600052602160045260246000fd5b634e487b7160e01b600052601160045260246000fd5b6001600160801b03818116838216019080821115612e2757612e27612df1565b5092915050565b6001600160801b03828116828216039080821115612e2757612e27612df1565b82815260406020820152600061278160408301846126b5565b600060208284031215612e7957600080fd5b5051919050565b8082018082111561049757610497612df1565b815160009082906020808601845b83811015612ec65781516001600160a01b031685529382019390820190600101612ea1565b50929695505050505050565b815160009082906020808601845b83811015612ec657815185529382019390820190600101612ee056fea2646970667358221220c150fbe22cb5c5d96c80a508cd81ec26b75b6aa188248c69b518678281999a8764736f6c63430008180033",
  "devdoc": {
    "errors": {
      "ERC20InsufficientAllowance(address,uint256,uint256)": [
        {
          "details": "Indicates a failure with the `spender`s `allowance`. Used in transfers.",
          "params": {
            "allowance": "Amount of tokens a `spender` is allowed to operate with.",
            "needed": "Minimum amount required to perform a transfer.",
            "spender": "Address that may be allowed to operate on tokens without being their owner."
          }
        }
      ],
      "ERC20InsufficientBalance(address,uint256,uint256)": [
        {
          "details": "Indicates an error related to the current `balance` of a `sender`. Used in transfers.",
          "params": {
            "balance": "Current balance for the interacting account.",
            "needed": "Minimum amount required to perform a transfer.",
            "sender": "Address whose tokens are being transferred."
          }
        }
      ],
      "ERC20InvalidApprover(address)": [
        {
          "details": "Indicates a failure with the `approver` of a token to be approved. Used in approvals.",
          "params": {
            "approver": "Address initiating an approval operation."
          }
        }
      ],
      "ERC20InvalidReceiver(address)": [
        {
          "details": "Indicates a failure with the token `receiver`. Used in transfers.",
          "params": {
            "receiver": "Address to which tokens are being transferred."
          }
        }
      ],
      "ERC20InvalidSender(address)": [
        {
          "details": "Indicates a failure with the token `sender`. Used in transfers.",
          "params": {
            "sender": "Address whose tokens are being transferred."
          }
        }
      ],
      "ERC20InvalidSpender(address)": [
        {
          "details": "Indicates a failure with the `spender` to be approved. Used in approvals.",
          "params": {
            "spender": "Address that may be allowed to operate on tokens without being their owner."
          }
        }
      ],
      "PermissionInvalid_ContractUnauthorized()": [
        {
          "details": "Emitted when `project` is not in `permission.projects` nor `address(this)` in `permission.contracts`"
        }
      ],
      "PermissionInvalid_Disabled()": [
        {
          "details": "Emitted when `validatorContract` returned `false` indicating that this permission has been externally disabled"
        }
      ],
      "PermissionInvalid_Expired()": [
        {
          "details": "Emitted when `permission.expiration` is in the past (< block.timestamp)"
        }
      ],
      "PermissionInvalid_IssuerSignature()": [
        {
          "details": "Emitted when `issuerSignature` is malformed or was not signed by `permission.issuer`"
        }
      ],
      "PermissionInvalid_RecipientSignature()": [
        {
          "details": "Emitted when `recipientSignature` is malformed or was not signed by `permission.recipient`"
        }
      ]
    },
    "events": {
      "Approval(address,address,uint256)": {
        "details": "Emitted when the allowance of a `spender` for an `owner` is set by a call to {approve}. `value` is the new allowance."
      },
      "Decrypted(address,uint256)": {
        "details": "Emitted when `amount` tokens are transferred from `_encBalance[owner]` to `_balance[owner]` by a call to {decrypt}."
      },
      "EIP712DomainChanged()": {
        "details": "MAY be emitted to signal that the domain could have changed."
      },
      "EncApproved(address,address)": {
        "details": "Emitted when the allowance of a `spender` for an `owner` is set by a call to {approveEncrypted}. `value` is the new allowance."
      },
      "EncTransfer(address,address)": {
        "details": "Emitted when `value` tokens are moved from one account (`from`) to another (`to`). Note that `value` may be zero."
      },
      "Encrypted(address,uint256)": {
        "details": "Emitted when `amount` tokens are transferred from `_balance[owner]` to `_encBalance[owner]` by a call to {encrypt}."
      },
      "Transfer(address,address,uint256)": {
        "details": "Emitted when `value` tokens are moved from one account (`from`) to another (`to`). Note that `value` may be zero."
      }
    },
    "kind": "dev",
    "methods": {
      "allowance(address,address)": {
        "details": "See {IERC20-allowance}."
      },
      "approve(address,uint256)": {
        "details": "See {IERC20-approve}. NOTE: If `value` is the maximum `uint256`, the allowance is not updated on `transferFrom`. This is semantically equivalent to an infinite approval. Requirements: - `spender` cannot be the zero address."
      },
      "balanceOf(address)": {
        "details": "See {IERC20-balanceOf}."
      },
      "checkPermissionSatisfies((address,uint64,address[],string[],address,uint256,address,bytes32,bytes,bytes))": {
        "details": "Utility function used to check whether a permission provides access to this contract. Intended to be used before real data is fetched to preempt a reversion, but is not necessary to use."
      },
      "decimals()": {
        "details": "Returns the number of decimals used to get its user representation. For example, if `decimals` equals `2`, a balance of `505` tokens should be displayed to a user as `5.05` (`505 / 10 ** 2`). Tokens usually opt for a value of 18, imitating the relationship between Ether and Wei. This is the default value returned by this function, unless it's overridden. NOTE: This information is only used for _display_ purposes: it in no way affects any of the arithmetic of the contract, including {IERC20-balanceOf} and {IERC20-transfer}."
      },
      "decrypt(uint128)": {
        "details": "Decrypts `amount` tokens, reducing the callers `encBalance` by `amount`, and increasing their public balance by `amount`. Returns a boolean value indicating whether the operation succeeded. Emits a {Decrypted} event."
      },
      "eip712Domain()": {
        "details": "See {IERC-5267}."
      },
      "encAllowance((address,uint64,address[],string[],address,uint256,address,bytes32,bytes,bytes),address,address)": {
        "details": "Returns the remaining number of tokens that `spender` will be allowed to spend on behalf of `owner` through {transferFrom}. This is zero by default. This value changes when {approve} or {transferFrom} are called."
      },
      "encApprove(address,uint128)": {
        "details": "Sets `ieAmount` tokens as the allowance of `spender` over the caller's tokens. Returns a boolean value indicating whether the operation succeeded. Emits an {EncApproved} event."
      },
      "encBalanceOf((address,uint64,address[],string[],address,uint256,address,bytes32,bytes,bytes))": {
        "details": "Returns the value of the encrypted tokens owned by `account`"
      },
      "encTotalSupply((address,uint64,address[],string[],address,uint256,address,bytes32,bytes,bytes))": {
        "details": "Returns the encrypted value of tokens in existence."
      },
      "encTransfer(address,uint128)": {
        "details": "Moves a `value` amount of tokens from the caller's account to `to`. Accepts the value as inUint128, more convenient for calls from EOAs. Returns a boolean value indicating whether the operation succeeded."
      },
      "encTransferFrom(address,address,uint128)": {
        "details": "Moves `ieAmount` tokens from `from` to `to` using the allowance mechanism. `value` is then deducted from the caller's allowance. Accepts the value as inUint128, more convenient for calls from EOAs. Returns a boolean value indicating whether the operation succeeded. Emits a {EncTransfer} event."
      },
      "encrypt(uint128)": {
        "details": "Encrypts `amount` tokens, reducing the callers public balance by `amount`, and increasing their `encBalance` by `amount`. Returns a boolean value indicating whether the operation succeeded. Emits an {Encrypted} event."
      },
      "name()": {
        "details": "Returns the name of the token."
      },
      "sealedAllowance((address,uint64,address[],string[],address,uint256,address,bytes32,bytes,bytes),address,address)": {
        "details": "Returns the remaining number of tokens that `spender` will be allowed to spend on behalf of `owner` through {transferFrom}. This is zero by default. Sealed for the caller. Permission issuer must be either the owner or spender. This value changes when {approve} or {transferFrom} are called."
      },
      "sealedBalanceOf((address,uint64,address[],string[],address,uint256,address,bytes32,bytes,bytes))": {
        "details": "Returns the value of the encrypted tokens owned by the issuer of the PermitNft, sealed for the caller"
      },
      "sealedTotalSupply((address,uint64,address[],string[],address,uint256,address,bytes32,bytes,bytes))": {
        "details": "Returns the encrypted value of tokens in existence, sealed for the caller."
      },
      "symbol()": {
        "details": "Returns the symbol of the token, usually a shorter version of the name."
      },
      "totalSupply()": {
        "details": "See {IERC20-totalSupply}."
      },
      "transfer(address,uint256)": {
        "details": "See {IERC20-transfer}. Requirements: - `to` cannot be the zero address. - the caller must have a balance of at least `value`."
      },
      "transferFrom(address,address,uint256)": {
        "details": "See {IERC20-transferFrom}. Emits an {Approval} event indicating the updated allowance. This is not required by the EIP. See the note at the beginning of {ERC20}. NOTE: Does not update the allowance if the current allowance is the maximum `uint256`. Requirements: - `from` and `to` cannot be the zero address. - `from` must have a balance of at least `value`. - the caller must have allowance for ``from``'s tokens of at least `value`."
      }
    },
    "version": 1
  },
  "userdoc": {
    "kind": "user",
    "methods": {
      "project()": {
        "notice": "This contract's project identifier string. Used in permissions to grant access to all contracts with this identifier."
      },
      "version()": {
        "notice": "Version of the fhenix permission signature"
      }
    },
    "notice": "Version of the FHERC20 able to be deployed on non-FHE chains All FHE operations and variables have been replaced with cleartext variables Used to test Smart Wallet PermitV2s on sepolia while waiting for Alchemy's   smart wallet infrastructure to be deployed on Fhenix Nitrogen testnet",
    "version": 1
  },
  "storageLayout": {
    "storage": [
      {
        "astId": 18848,
        "contract": "contracts/FHERC20.sol:FHERC20",
        "label": "_balances",
        "offset": 0,
        "slot": "0",
        "type": "t_mapping(t_address,t_uint256)"
      },
      {
        "astId": 18854,
        "contract": "contracts/FHERC20.sol:FHERC20",
        "label": "_allowances",
        "offset": 0,
        "slot": "1",
        "type": "t_mapping(t_address,t_mapping(t_address,t_uint256))"
      },
      {
        "astId": 18856,
        "contract": "contracts/FHERC20.sol:FHERC20",
        "label": "_totalSupply",
        "offset": 0,
        "slot": "2",
        "type": "t_uint256"
      },
      {
        "astId": 18858,
        "contract": "contracts/FHERC20.sol:FHERC20",
        "label": "_name",
        "offset": 0,
        "slot": "3",
        "type": "t_string_storage"
      },
      {
        "astId": 18860,
        "contract": "contracts/FHERC20.sol:FHERC20",
        "label": "_symbol",
        "offset": 0,
        "slot": "4",
        "type": "t_string_storage"
      },
      {
        "astId": 17997,
        "contract": "contracts/FHERC20.sol:FHERC20",
        "label": "_nameFallback",
        "offset": 0,
        "slot": "5",
        "type": "t_string_storage"
      },
      {
        "astId": 17999,
        "contract": "contracts/FHERC20.sol:FHERC20",
        "label": "_versionFallback",
        "offset": 0,
        "slot": "6",
        "type": "t_string_storage"
      },
      {
        "astId": 18226,
        "contract": "contracts/FHERC20.sol:FHERC20",
        "label": "version",
        "offset": 0,
        "slot": "7",
        "type": "t_string_storage"
      },
      {
        "astId": 18229,
        "contract": "contracts/FHERC20.sol:FHERC20",
        "label": "project",
        "offset": 0,
        "slot": "8",
        "type": "t_string_storage"
      },
      {
        "astId": 21761,
        "contract": "contracts/FHERC20.sol:FHERC20",
        "label": "_encBalances",
        "offset": 0,
        "slot": "9",
        "type": "t_mapping(t_address,t_uint128)"
      },
      {
        "astId": 21767,
        "contract": "contracts/FHERC20.sol:FHERC20",
        "label": "_encAllowances",
        "offset": 0,
        "slot": "10",
        "type": "t_mapping(t_address,t_mapping(t_address,t_uint128))"
      },
      {
        "astId": 21770,
        "contract": "contracts/FHERC20.sol:FHERC20",
        "label": "_encTotalSupply",
        "offset": 0,
        "slot": "11",
        "type": "t_uint128"
      },
      {
        "astId": 21772,
        "contract": "contracts/FHERC20.sol:FHERC20",
        "label": "_decimals",
        "offset": 16,
        "slot": "11",
        "type": "t_uint8"
      }
    ],
    "types": {
      "t_address": {
        "encoding": "inplace",
        "label": "address",
        "numberOfBytes": "20"
      },
      "t_mapping(t_address,t_mapping(t_address,t_uint128))": {
        "encoding": "mapping",
        "key": "t_address",
        "label": "mapping(address => mapping(address => uint128))",
        "numberOfBytes": "32",
        "value": "t_mapping(t_address,t_uint128)"
      },
      "t_mapping(t_address,t_mapping(t_address,t_uint256))": {
        "encoding": "mapping",
        "key": "t_address",
        "label": "mapping(address => mapping(address => uint256))",
        "numberOfBytes": "32",
        "value": "t_mapping(t_address,t_uint256)"
      },
      "t_mapping(t_address,t_uint128)": {
        "encoding": "mapping",
        "key": "t_address",
        "label": "mapping(address => uint128)",
        "numberOfBytes": "32",
        "value": "t_uint128"
      },
      "t_mapping(t_address,t_uint256)": {
        "encoding": "mapping",
        "key": "t_address",
        "label": "mapping(address => uint256)",
        "numberOfBytes": "32",
        "value": "t_uint256"
      },
      "t_string_storage": {
        "encoding": "bytes",
        "label": "string",
        "numberOfBytes": "32"
      },
      "t_uint128": {
        "encoding": "inplace",
        "label": "uint128",
        "numberOfBytes": "16"
      },
      "t_uint256": {
        "encoding": "inplace",
        "label": "uint256",
        "numberOfBytes": "32"
      },
      "t_uint8": {
        "encoding": "inplace",
        "label": "uint8",
        "numberOfBytes": "1"
      }
    }
  }
}